:02000000E62AEE
:08000800FF00030E8312031335
:10001000A0000A0EA100040EA2008A110A12F12A01
:10002000AA08031D14280800F93000000000FF3E54
:10003000031D1528000000000000AA0B142808006A
:10004000AA08031D2428080002300000FF3E031DFB
:10005000252800000000AA0B242808007508643A2F
:10006000031D3428C9013628750AC90076084906D7
:10007000031D3D280230CA00080083171030840099
:1000800075088407480880004908F500CA0108007F
:10009000F0308316031388048312871400000000D5
:1000A000071400000000000000000000F030080508
:1000B000C10007100000000000000000000007144D
:1000C00000000000000000000000080E0F39C1040D
:1000D00007100000000000004108C20008004110A5
:1000E0004008C2008710000000000F30831688050A
:1000F0000F3083128805F030420588040714000091
:1001000000000000000000000710000000000000D8
:10011000C201411CC20A411042184114C00EF03005
:10012000C005411870280800A308031DA32840102B
:10013000071D9B28401407114820C21B9C2840180B
:100140000715401C07113F08C0006F2008008710EA
:10015000000000000F30831688050F3083128805D9
:10016000F0302A0588040714000000000000000099
:10017000000007100000000000000800BD01071586
:1001800083132B1883172A08840083132B188317D3
:100190002A0884003D08BF00BD0A3F088407000804
:1001A000BE00BE08031908003E080A3A031DDE28F7
:1001B0000711C030BF0094200715C0283E08BF00BB
:1001C0009420C02807112A08AC002B1CE9284030D5
:1001D000AC07AB1CED281430AC072C08803EBF00E8
:1001E000942008008312031307110130BF009420EC
:1001F0000230BF0094200800F220051C0F29AA013C
:10020000AB01E2204430AC004130AD004230AE00E2
:10021000AF010030AB002C30AA00BE200800851CC6
:100220002B29AA01AB01E2205030AC004330AD00D5
:100230002030AE004130AF007530B0006430B10006
:100240006930B2006F30B300B4010030AB002C3025
:10025000AA00BE200800051D4B29AA01AB01E2201F
:100260004330AC006830AD007230AE006F30AF008C
:100270006D30B0006530B1006330B2006130B30062
:100280007330B4007430B500B6010030AB002C30D0
:10029000AA00BE200800AA01AB01E2204130AC0058
:1002A0006130B2006930AF00B1006C30B000723024
:1002B000B3007530AD007830AE007930B400B501D0
:1002C0000030AB002C30AA00BE200800760875066E
:1002D000031D6D290130AE00080083171030840023
:1002E0007608AF002F0884070008B00083132D188C
:1002F00083172C088400300880007608643A031DB8
:100300008329AF018529760AAF002F08F600AE01D8
:10031000080083160313071187100710013083129A
:10032000A3001030AA00102007113030AA00A72027
:100330000530AA0010203030AA00A7206430AA009F
:1003400020203030AA00A7202A1007192A140711EC
:100350004820C21BA8292A1807152A1C0711283073
:10036000AA00A7202A1007192A1407114820C21B27
:10037000B6292A1807152A1C0711A3012830BF0027
:1003800094200630BF0094200C30BF0094208030B1
:10039000BF009420080007112C08BF00942008001B
:1003A00083120313061C080085161010FC20080099
:1003B00007308316031385008312850101308316ED
:1003C000860083128601D830831687001830831286
:1003D000870083168801831288018316890183129E
:1003E00089019F010F3083169F00313083129000E6
:1003F00090161016901110159010101048308F00A4
:10040000E4308E0083160C14831294131413941684
:10041000141694151415941414102408AA0003102B
:100420002A0D8316930094011930990036309800F4
:10043000903083129800A501C830AA0010200B1636
:10044000831601138B1081170B178B178C158312D2
:10045000A601A70189211416080083120313AB011A
:100460000030AD002A30AC006621AE08031D080044
:100470002A0A031D3D2AAB01302AAB08031D542A6A
:10048000AA08031D462A0130AB00302A2A08C03AC8
:10049000031D4D2A0230AB00302A2A08403A031DC2
:1004A000302A0330AB00302A2B03031D5F2A2A08B1
:1004B000383A0319302A2A08AC00CB21302A2B08FD
:1004C000013C0318302A2A08C03A0319302A0715BC
:1004D0002A08BF009420302AD8211014AA01AB01A9
:1004E000E2204830AC006530AD006C30AE00AF00AB
:1004F0006F30B0002130B100B2010030AB002C30C1
:10050000AA00BE20AA010130AB00E2202030B000DA
:10051000B2002E30B900BA00BB004A30AC006130E6
:10052000B1006530B6006D30B300B5006E30B70075
:100530006F30B4007330AE007430AF00B800753067
:10054000AD00BC010030AB002C30AA00BE20260854
:10055000003C0318CD2A261CC12A1014F220463074
:10056000AC004130AD005530AE004C30AF005430DF
:10057000B000B1010030AB002C30AA00BE20261024
:10058000A72AA61FC62AD021A613A72A261FA72A54
:10059000061CCB2A2D222613A72A061CA72A851E55
:1005A000A72A07300505A800290828060319DE2A0E
:1005B0003230AA00102007300505A80029082806B7
:1005C0000319A72A2808A900FC20A72A3E30831275
:1005D0000313A40003179001F501F6018A110A1212
:1005E0006C2A8B1CFB2A831203130618F92A851226
:1005F00026148B103B2B831203138C1D2D2B141FE1
:10060000052B1308C30014131E2B2D30831614055D
:100610008312C40009304406C600C608031D132B0C
:100620001308C3001E2B29304406C700C708031D4A
:100630001E2B1308C3004308C8002E203D3083162C
:1006400014058312C5003030C506C508031D2C2BC8
:10065000FF30C8002E2026178C110C1C3B2B483075
:100660008F00E4308E00A70A08302702031C3A2BC3
:10067000A617A7010C10220E8400210E8A00200E5E
:080680008300FF0E7F0E09004C
:02400E00BA3FB7
:00000001FF
